:10000600D2BBBCB6BFDAC1EEA3BAD0A1BDDC0D0A25
:1000160000B6FEBCB6BFDAC1EEA3BA31A1A2B4FAED
:10002600C2EBB2E2CAD40D0A000932A1A2BFAAB736
:10003600A2B0E5D1E9D6A40D0A000933A1A2BFAA50
:10004600B5C60D0A000934A1A2B9D8B5C60D0A0075
:10005600202035A1A2B1B1BEA90D0A000936A1A280
:10006600C9CFBAA30D0A000937A1A2B9E3D6DD0D9F
:100076000A00A1B0B4FAC2EBB2E2CAD4A1B1C3FC81
:10008600C1EECAB6B1F0B3C9B9A60D0A00A1B0BF98
:10009600AAB7A2B0E5D1E9D6A4A1B1C3FCC1EECA04
:1000A600B6B1F0B3C9B9A60D0A00A1B0BFAAB5C6CC
:1000B600A1B1C3FCC1EECAB6B1F0B3C9B9A60D0A67
:1000C60000A1B0B9D8B5C6A1B1C3FCC1EECAB6B1DC
:1000D600F0B3C9B9A60D0A00A1B0B1B1BEA9A1B1CC
:1000E600C3FCC1EECAB6B1F0B3C9B9A60D0A00A1E8
:1000F600B0C9CFBAA3A1B1C3FCC1EECAB6B1F0B3C1
:10010600C9B9A60D0A00A1B0B9E3D6DDA1B1C3FCF9
:10011600C1EECAB6B1F0B3C9B9A60D0A00C7EBD68F
:10012600D8D0C2CAB6B1F0B7A2BFDAC1EE0D0A0086
:10013600C7EBCBB5B3F6D2BBBCB6BFDAC1EE0D0A80
:0101460000B8
:06097400011C00011B0044
:1004D100E4F50912091A1209361208051208AAE4EC
:1004E100781CF67BFF7A0079061208D17BFF7A002F
:1004F10079171208D17BFF7A00792F1208D17BFF7F
:100501007A0079401208D17BFF7A00794B1208D129
:100511007BFF7A0079561208D17BFF7A007962124B
:1005210008D17BFF7A00796D1208D1781CE614603E
:10053100FA24F1601824DF60F224317020781C76EF
:1005410001120772EF70E4781C763180DE12099592
:10055100781EEFF61205F7E4781CF680CEE4781CDD
:03056100F680C859
:10091A00B2C212095CB2C212095CB2C212095CB25A
:0C092A00C212095CB2C212095CB2C22207
:100936007580FF7590FF75A0FF75B0FF75C0FFC28B
:08094600C3D289D2A8D2AF226E
:0A09690000007F057E49DEFEDFFC82
:010973002261
:0808F6008F148E138D128C117A
:1008FE00E4F515F516F517F518781174FF12017059
:0B090E00EC4D4E4F600512096980EEB1
:0109190022BB
:0C095C007F117ED07D1BDDFEDEFCDFFA8B
:01096800226C
:03000300020846AA
:10084600C0E0C0F0C083C082C0D075D000C000C078
:1008560001C002C003C004C005C006C00712043CA4
:10086600D007D006D005D004D003D002D001D000E6
:0B087600D0D0D082D083D0F0D0E03290
:1005F700EF7006751B01C2C222E51B64017077F517
:100607001BD2C2EF24FE602224FE602A146033242A
:10061700EF603B14604024E86048242E70507BFF55
:100627007A0079781208D1C2C1227BFF7A007993C8
:100637001208D1C2A7227BFF7A0079B01208D1C273
:10064700A6227BFF7A0079C71208D1D2A6227BFFA8
:100657007A0079DE80067BFF7A0079F51208D1C22D
:10066700A5227BFF7A01790C1208D1C2A3227BFF56
:100677007A01792380067BFF7A0179361208D12225
:10025C007869616F206A6965000000000000000089
:10026C00000000006B61692066612062616E20797C
:10027C00616E207A68656E67646169206D612063C8
:10028C006520736869000000000000006B61692044
:10029C0064656E67000000000000000000000000B4
:1002AC006775616E2064656E6700000000000000D9
:1002BC00000000007A6920646F6E67000000000087
:1002CC00000000000000000073686F7520646F6E02
:1002DC006700000000000000000000006775616E00
:1002EC0067207A686F7500000000000000000000B5
:0802FC00000201040516172F92
:10080500D2B57F017E007D007C001208F6C2B57F5F
:10081500017E007D007C001208F6D2B57F017E00C6
:100825007D007C001208F6C2A17F017E007D007C60
:10083500001208F6D2A17F017E007D007C0002082F
:01084500F6BC
:100304007F0612098A7D357F1712097F7F0A7E00D6
:100314007D007C001208F67F0612098A7D037F891E
:1003240012097F7F057E007D007C001208F67D4364
:100334007FCF12097F7F057E007D007C001208F6C6
:100344007D027FCB12097F7D0A7F1112097FE4FDB4
:100354007F1E12097F7D3F7F1912097F7D487F1B15
:1003640012097F7D1F7F1D12097F7F0A7E007D0099
:100374007C001208F67D047FCD12097F7F057E0084
:100384007D007C001208F6E4FD7FB912097F7D4FE1
:0C0394007FCF12097F7DFF7F6F02097F81
:10071300120304E4FD7FBD12097F7D487F17120990
:100723007F7F0A7E007D007C001208F67D807F3C7F
:1007330012097F7D077F3E12097F7DFF7F381209F3
:100743007F7D077F3A12097FE4FD7F4012097F7D99
:10075300087F4212097FE4FD7F4412097F7D087FF1
:0F0763004612097F7F017E007D007C000208F6B0
:10043C00E4F508C2A87F2B12098A781DA607E4FDF3
:10044C007F2912097FE4FD7F0212097F781DE630B7
:10045C00E42D7FB212098AEF642170237FBF120949
:10046C008ABF351B7FBA12098A8F08E508D394001E
:10047C00400DE508D394045006781C76108004785F
:10048C001C7611E4FD7F2B12097FE4FD7F1C120901
:10049C007FE4FD7F2912097FE4FD7F0212097FE4CE
:1004AC00FD7F2B12097FE4FD7FBA12097FE4FD7FEB
:1004BC00BC12097F7D017F0812097FE4FD7F0812C1
:0404CC00097FD2A82A
:0104D0002209
:10077200E4F50AF50BF50A12099B7F327E007D0033
:100782007C001208F61203A0EF700280117F0A7E2D
:10079200007D007C001208F6120564EF701012084A
:1007A200057F327E007D007C001208F68005750B05
:0E07B200018009050AE50AC3940540BBAF0BA0
:0107C0002216
:10088100E4F510F50F7FB212098ABF210575100139
:1008910080147F0A7E007D007C001208F6050FE5BA
:0808A1000FC3940A40DFAF1001
:0108A900222C
:03099B000207133D
:10056400C2A87D557F3512097F7D097F1C12097F42
:100574007D207FBD12097F7D017F0812097F7F01E5
:100584007E007D007C001208F6E4FD7F0812097FDE
:100594007F017E007D007C001208F6120881EF7056
:1005A40002FF227D0B7F1C12097F7DFF7FB212099F
:1005B4007F7F017E007D007C001208F67D067F3778
:1005C40012097F7F017E007D007C001208F67D0603
:1005D4007F3712097F7F057E007D007C001208F6BC
:1005E4007D107F2912097FE4FD7FBD12097FD2A807
:0305F4007F012262
:1003A000750D01E4F50C120881EF7005F50D0204DE
:1003B00039E50C9002FC93FD7FC112097FE4FD7FBB
:1003C000C312097F7D047F0812097F7F017E007DB3
:1003D000007C001208F6E4FD7F0812097F7F017E91
:1003E000007D007C001208F6E4F50EE50C75F014B3
:1003F000A4245CF582E43402F583E582250EF582BF
:10040000E43583F583E493FD600E7F0512097F05D3
:100410000EE50EC3941440D3AD0E7FB912097F7D53
:10042000FF7FB212097F7D047F3712097F050CE53B
:0B0430000CC3940850030203A6AF0D9C
:01043B00229E
:060995007FC512098A2251
:0B097F00908100EFF0908000EDF0226E
:0B098A00908100EFF0908000E0FF2261
:04097A0002192580B9
:1008AA00759850758920AE19AF1AAB07AA06E4F9F4
:1008BA00F8FF7EE1FDFC1207C11201608F8B8F8D5C
:0708CA00D28ED2ACD2AF22A6
:0E094E00C2ACC2998F993099FDC299D2AC22E9
:1008D1008B0A8A0B890CAB0AAA0BA90C120147607F
:1008E10013050CE50C7002050B14F9120147FF12F8
:0508F100094E80E22227
:030000000206876E
:0C068700787FE4F6D8FD75811E0206CED7
:10014700BB010689828A83E0225002E722BBFE02B6
:09015700E32289828A83E49322E9
:1007C100C2D5E830E70FB2D5E4C39BFBE49AFAE463
:1007D10099F9E498F8EC30E717B2D51207F712014E
:1007E100CAE4C39BFBE49AFAE499F9E498F880031C
:1007F1001201CA30D50DE4C39FFFE49EFEE49DFDC6
:04080100E49CFC2255
:0E016000C3E49FFFE49EFEE49DFDE49CFC22B0
:10016E007401FF3395E0FEFDFC080808E6CF2FF67C
:10017E0018E6CE3EF618E6CD3DF618E6CC3CF62255
:100693000204D1E493A3F8E493A34003F68001F2A8
:1006A30008DFF48029E493A3F85407240CC8C33368
:1006B300C4540F4420C8834004F456800146F6DF37
:1006C300E4800B0102040810204080900974E47E4A
:1006D300019360BCA3FF543F30E509541FFEE4932C
:1006E300A360010ECF54C025E060A840B8E493A3F3
:1006F300FAE493A3F8E493A3C8C582C8CAC583CA1E
:10070300F0A3C8C582C8CAC583CADFE9DEE780BED5
:01097E000078
:10018E0075F008758200EF2FFFEE33FECD33CDCC28
:10019E0033CCC58233C5829BED9AEC99E5829840AB
:1001AE000CF582EE9BFEED9AFDEC99FC0FD5F0D688
:1001BE00E4CEFBE4CDFAE4CCF9A88222B800C1B9B2
:1001CE000059BA002DEC8BF084CFCECDFCE5F0CBF0
:1001DE00F97818EF2FFFEE33FEED33FDEC33FCEB29
:1001EE0033FB10D703994004EB99FB0FD8E5E4F9E4
:1001FE00FA227818EF2FFFEE33FEED33FDEC33FCD1
:10020E00C933C910D7059BE99A4007EC9BFCE99AC4
:10021E00F90FD8E0E4C9FAE4CCFB2275F010EF2F09
:10022E00FFEE33FEED33FDCC33CCC833C810D70709
:10023E009BEC9AE899400AED9BFDEC9AFCE899F844
:0E024E000FD5F0DAE4CDFBE4CCFAE4C8F922D7
:00000001FF
