:03000600DFFE22F8
:10032B00AE07AF061EEF600C7FF51200067FF512CD
:05033B00000680EE2227
:100340003F065B4F666D7D077F6FFEFDFBF7EFDFBE
:02035000BF7F6D
:030383000108006E
:10029B00E4F580D2A6C2A6E5082F90034A93F58019
:1002AB00D2A7C2A774092508F8E6F580D2A6C2A684
:0A02BB000508E508B50503E4F508A1
:0102C5002216
:0A000E00438901D2AFD2A9D28C229F
:03000B0002026E80
:10026E00C0E0C083C082C0D075D000C000C005C041
:10027E0007758CF8758A307D08E4FF12029BD00753
:0D028E00D005D000D0D0D082D083D0E03297
:10031500D2A000D2A10000000000C2A00000000091
:0603250000C2A10000224D
:10035200C2A000D2A10000000000D2A00000000054
:010362002278
:1001F800E4FEEFA806088002C333D8FC30E704D237
:10020800A08002C2A000D2A10000000000C2A10E7E
:10021800BE08DF0000D2A00000D2A100000030A07C
:0B02280004C2038002D203C2A1000048
:0102330022A8
:1002F100E4FFD2A0FE00C2A10000000000D2A100D4
:1003010000EF25E0FF30A0010F00000EBE08E6C29D
:03031100A1000048
:0103140022C6
:10036300D2A0000000D2A10000000000C2A1000042
:010373002267
:05038600012300C1028B
:07038C00D288D2AFD2A822F3
:0F037400438920E4F58DF58BD2AFD2ABD28E2228
:1002C6007E01E4FDE4FCEFC313FF74242EF8E6D3AD
:1002D600940640034307800E0CBC08EA74452DF8CB
:0A02E600A607E4FF0DBD04DCD20002
:0102F00022EB
:10013500E547B40C07900341E493F50EE547B41881
:100145000F900342E493F50ED290D297C296D295C2
:10015500E547B45E0F900343E493F50EC290D29742
:10016500C296D295E547B4080D900344E493F50E85
:10017500D297D296C295E547B41C07900345E49300
:10018500F50EE547B45A07900346E493F50EE547A7
:10019500B44207900347E493F50EE547B452079040
:1001A5000348E493F50EE547B44A07900349E49301
:0301B500F50E2222
:1000AA0012000E12038C120374900340E493F50EAF
:1000BA007F03120234C374FF9FF523300105C20186
:1000CA001202C6300005C200120135E547B40C1F02
:1000DA00C297D295D296E523C394505002C290E5B6
:1000EA0023D394504002D290900341E493F50EE555
:1000FA0047B4080A209402C290309402D290E523B1
:10010A0075F0648490034093F509E52375F06484DF
:10011A00AFF0EF75F00A8493F50AEF75F00A84E5FB
:0B012A00F093F50B7F6412032B80851F
:020234008F1128
:100236001203157F901201F82003037F0022E511B7
:100246004440FF1201F82003037F00221203157FAA
:10025600911201F82003037F00221202F18F12127D
:070266000363120352AF1203
:01026D00226E
:030003000201B83F
:1001B800C0E0C0D075D000C000300228E521D3943B
:1001C8001D4009E521943A50037522007424252224
:1001D800F8A6217521000522E522B4210C7522001C
:1001E800D2018005752100D202D000D0D0D0E032F3
:03001B00020018C8
:030018000521328D
:0300000002001EDD
:0C001E00787FE4F6D8FD7581480200658B
:10002A000200AAE493A3F8E493A34003F68001F242
:10003A0008DFF48029E493A3F85407240CC8C333D7
:10004A00C4540F4420C8834004F456800146F6DFA6
:10005A00E4800B0102040810204080900383E47EB0
:10006A00019360BCA3FF543F30E509541FFEE4939B
:10007A00A360010ECF54C025E060A840B8E493A362
:10008A00FAE493A3F8E493A3C8C582C8CAC583CA8D
:10009A00F0A3C8C582C8CAC583CADFE9DEE780BE45
:01038B000071
:00000001FF
